{
    "contractName": "SBHCToken",
    "abi": [
        {
            "inputs": [],
            "stateMutability": "nonpayable",
            "type": "constructor"
        },
        {
            "inputs": [],
            "name": "getOwner",
            "outputs": [
                {
                    "internalType": "address",
                    "name": "",
                    "type": "address"
                }
            ],
            "stateMutability": "view",
            "type": "function"
        },
        {
            "inputs": [],
            "name": "getToken",
            "outputs": [
                {
                    "internalType": "string",
                    "name": "",
                    "type": "string"
                }
            ],
            "stateMutability": "view",
            "type": "function"
        },
        {
            "inputs": [],
            "name": "getTotalSupply",
            "outputs": [
                {
                    "internalType": "uint256",
                    "name": "",
                    "type": "uint256"
                }
            ],
            "stateMutability": "view",
            "type": "function"
        }
    ],
    "bytecode": "608060405234801561001057600080fd5b50620493e0600055600180546001600160a01b0319163317905560408051808201909152600a8082526929a12421902a37b5b2b760b11b602090920191825261005b91600291610061565b50610135565b82805461006d906100fa565b90600052602060002090601f01602090048101928261008f57600085556100d5565b82601f106100a857805160ff19168380011785556100d5565b828001600101855582156100d5579182015b828111156100d55782518255916020019190600101906100ba565b506100e19291506100e5565b5090565b5b808211156100e157600081556001016100e6565b600181811c9082168061010e57607f821691505b6020821081141561012f57634e487b7160e01b600052602260045260246000fd5b50919050565b6101e8806101446000396000f3fe608060405234801561001057600080fd5b50600436106100415760003560e01c806321df0da714610046578063893d20e814610064578063c4e41b221461007f575b600080fd5b61004e610090565b60405161005b9190610122565b60405180910390f35b6001546040516001600160a01b03909116815260200161005b565b60005460405190815260200161005b565b60606002805461009f90610177565b80601f01602080910402602001604051908101604052809291908181526020018280546100cb90610177565b80156101185780601f106100ed57610100808354040283529160200191610118565b820191906000526020600020905b8154815290600101906020018083116100fb57829003601f168201915b5050505050905090565b600060208083528351808285015260005b8181101561014f57858101830151858201604001528201610133565b81811115610161576000604083870101525b50601f01601f1916929092016040019392505050565b600181811c9082168061018b57607f821691505b602082108114156101ac57634e487b7160e01b600052602260045260246000fd5b5091905056fea264697066735822122004fef9ad36862372ae368cec3533eee913145797b3ed03f4089f40a2cb77496764736f6c63430008060033",
    "sourcePath": "c:/Users/suwan/OneDrive/Desktop/School Stuff/CODE Uni/BSC/solidity-testing/contracts/SBHCToken.sol",
    "compiler": {
        "name": "solc",
        "version": "0.8.6+commit.11564f7e"
    },
    "functionHashes": {
        "getOwner()": "893d20e8",
        "getToken()": "21df0da7",
        "getTotalSupply()": "c4e41b22"
    },
    "gasEstimates": {
        "creation": {
            "codeDepositCost": "97600",
            "executionCost": "infinite",
            "totalCost": "infinite"
        },
        "external": {
            "getOwner()": "2301",
            "getToken()": "infinite",
            "getTotalSupply()": "2302"
        }
    }
}